:020000040800F2
:100000000000032025950008998F00089F8F0008A5
:10001000A58F0008AB8F0008B18F0008000000001A
:10002000000000000000000000000000B78F000882
:10003000C58F000800000000D38F0008E18F000882
:1000400079950008ED8F000879950008F98F000870
:10005000059000081190000879950008799500082E
:100060007995000879950008799500082190000895
:1000700035900008499000087995000879950008A6
:100080007995000879950008799500087995000818
:10009000799500085D900008799500087995000829
:1000A00079950008799500087995000879950008F8
:1000B00079950008799500087995000879950008E8
:1000C00079950008799500087995000879950008D8
:1000D0006D900008819000087995000879950008D6
:1000E00079950008799500087995000895900008A1
:1000F000A3900008AF900008BB9000087995000815
:100100007995000879950008799500087995000897
:100110007995000879950008C7900008799500083E
:100120007995000879950008799500087995000877
:0C01300079950008799500087995000881
:1001400010B5054C237833B9044B13B10448AFF311
:1001500000800123237010BDDC010020000000009E
:100160005C72010808B5034B1BB103490348AFF3A8
:10017000008008BD00000000E00100205C72010862
:10018000807B704741657047018270478089704766
:1001900038B504000D00A582A07BFF2808D0200000
:1001A00011F0D0FB237FA28AA17B200011F08AFBF3
:1001B00031BD10B50400A17BA06810F066FE0100FF
:1001C00089B24FF6FF72914201D1A18A080080B234
:1001D00010BD30B4030001209A7D12F00302012A01
:1001E00001D1012400E000240A00D2B2AB2A1DD0C4
:1001F000AC2A0FD0AF2A23D1DD8A4FF6FD7215400D
:10020000DD82DD8A4FF6FE721540DD822200D2B219
:10021000002A17E0DA8A52F00202DA82DA8A52F011
:100220000102DA822200D2B2002A0BE0DD8A4FF608
:10023000FD721540DD82DA8A52F00102DA8201E0B5
:10024000002210000200D2B2002A00D09974C0B27D
:1002500030BC7047F8B504000D0016000027A07CE4
:10026000AF2802D10120070075E0A07CAC280AD19C
:1002700095F82A00AC2803D095F82A00AB2801D1C4
:100280000120070067E0A07CAB2864D195F82A0024
:10029000AB2802D1012007005DE095F82A00AC28C8
:1002A00059D1A089192814D1207F012811D1280003
:1002B00010F01BFE00280BD03078012808D1B07850
:1002C000012805D1F079002802D10120070042E081
:1002D00041E0A08940F2027188421AD1207F0028B3
:1002E00017D13078002814D1F079002811D1B078D6
:1002F00000280ED1288D02280BD3686A01F0F1F98D
:10030000010089B240F20632914202D101210F0070
:1003100021E0A08940F2027188421BD1207F012890
:1003200018D13078002814D1F079012811D1B07893
:1003300001280ED1288D02280BD3686A01F0D1F96B
:10034000010089B240F20632914202D101210F0030
:1003500001E000E0FFE73800C0B2F2BDCA0500D4FA
:10036000C1827047C08A4FF6FF61084070470100A4
:10037000002050F0040050F008000A00D2B2AB2A6E
:1003800002D150F0010007E00A00D2B2AC2A03D13A
:1003900050F0010050F0020080B27047007F7047BB
:1003A0000100087F002803D0022805D002D305E011
:1003B000034804E0034802E0034800E003487047B4
:1003C000FC780108047901080C7901081479010806
:1003D0000176704741767047407E704770B50400E3
:1003E0000D002E0010F06EFB310089B2884201D260
:1003F000002007E0300080B2392801D23920060001
:100400006683012070BD408B7047F8B504000D0075
:10041000302600273A003100280005F0ACFEA08A03
:100420002882A0896882A07BA882E08AE882207E58
:100430002876607E6876F1BD2DE9F04105000E005A
:10044000140030275FF0000842463900300005F004
:1004500092FEA88A3082A8897082A87BB082E88A3E
:10046000B084287E86F82600687E86F82700002C57
:100470000BD0B08AFF2801D16088B082208C4FF663
:10048000FF71884201D0208C3082BDE8F0810000ED
:100490002DE9FE4F04000D0016005FF0000B5846DA
:1004A000310080B289B288423CD2300080B25946D5
:1004B00089B2091D884201D2872034E0584680B2B3
:1004C000284401F00EF907001BF1020B584680B2D8
:1004D000284401F006F980461BF1020B300080B27F
:1004E000414689B211FA8BF1884201DA87201AE07D
:1004F000584680B22844814618EB0B0B0620019029
:10050000404680B200904B463A0092B20021200053
:1005100001F00AFC82465046C0B20028BFD05046C7
:10052000C0B200E00020BDE8FE8F2DE9F84F92B088
:1005300005000E001700002367A2698BA86811F060
:1005400055FA0400002C06D1892332003900280016
:1005500011F01CF9BCE05FF008095FF0000A0DF132
:100560000C0B52464946584605F005FE00208DF812
:100570000C0070788DF80D00B078002801D10120B2
:1005800000E000208DF80E0001208DF80F00B088EB
:10059000ADF81000B0798DF8120001208DF813002D
:1005A0006A8B210003A800F0A4FC8146B9F1000F7A
:1005B0000CD5002348A22100A86811F026FA802358
:1005C00032003900280011F0E1F881E0CB46388D87
:1005D000022852D3786A01F084F88046786A801C39
:1005E0007862388D801E38851BF10400698B884243
:1005F00043D2414689B204EB0B0001F0BEF81BF177
:10060000020B00200190688BB0EB0B00801E009065
:1006100004EB0B00831C02AA414689B2280001F0BA
:1006200034FA824604F80BA01BF1010B5046C0B20D
:10063000892822D05046C0B20028C8D19DF80800B1
:1006400004F80B001BF1010B00236A8BB2EB0B02C9
:1006500004EB0B019DF8080002F03BF88146B9F16C
:10066000000F07D5BBF1010B872004EB0B0101F84C
:10067000010CACE719EB0B0BA9E73A0006A928001F
:10068000FFF7DAFE06A817F11001102214F0C4FAE1
:1006900097F82A00FFF76BFEADF83C00A87D000735
:1006A00006D4BDF83C104FF6F7700140ADF83C1091
:1006B0000C945846ADF834000023002206A9A8681F
:1006C00010F09EFB002304A22100A86811F09DF900
:1006D00013B0BDE8F08F0000000000002DE9F34FDB
:1006E000A3B016000127002500245FF0000824981D
:1006F000C0798DF808005FF000099DF80800022815
:1007000007D0032803D0052800F0C38016E159F074
:10071000010908200190002000900DF1140B009AAF
:100720000199584605F027FD00208DF81400249803
:1007300040788DF8150024988078002801D1012098
:1007400000E000208DF8160001208DF81700249895
:100750008088ADF81800249880798DF81A0004205C
:100760008DF81B00392207A905A800F0C2FB05007F
:10077000002D02D580208046E2E0320016A92398A1
:10078000FFF75AFE16A816F11001102214F044FAD1
:1007900096F82A00FFF7EBFDADF87C0000208246BA
:1007A0008020070001208DF80900002004001AF1C4
:1007B0000300318D884202D3802007005CE0E81CF2
:1007C0003A2805D301208DF809008920070053E05D
:1007D00000208DF80900706A504400F082FFADF8E7
:1007E0000C001AF1020A5046716A095C8DF80A1071
:1007F00082461AF1010A0023328DB2EB0A02706AB6
:1008000000EB0A019DF80A0001F063FF04900498D0
:1008100000280CD5641C872007A948556D1CBDF81D
:100820000C1007A8284400F0A8FFAD1C24E048469F
:1008300080B20190308DB0EB0A000090706A00EB3E
:100840000A03BDF80C2016F11001239801F06CFA90
:100850000700049810EB0A0A3800C0B20028A6D09E
:10086000641C07A847556D1CBDF80C1007A8284448
:1008700000F083FFAD1C9AE79DF80900002801D025
:10088000B8465DE09DF80800022801D0002C00D099
:1008900056E0002082465FF0000B1AF10300318D14
:1008A000884202D35C46641C3BE0706A504400F00E
:1008B00018FFADF80C001AF1020A706A10F80A006D
:1008C0008DF80A001AF1010A0023328DB2EB0A02F8
:1008D000706A00EB0A019DF80A0001F0FAFE04902C
:1008E0000498002802D55C46641C1AE000200190A0
:1008F000308DB0EB0A000090706A00EB0A03BDF87F
:100900000C2016F11001239801F00EFA07003800B0
:10091000C0B2002801D01BF1010B049810EB0A0AA9
:10092000BBE79DF80800032805D1002C02D0012068
:10093000804605E004E0FF20804601E082208046FA
:100940004046C0B200280BD04046C0B2FF2806D0B7
:100950004346DBB2249A3100239810F017FF1AE0C7
:10096000002C0CD1002D06D10123249A31002398AC
:1009700010F00CFF0FE0002007A948556D1C07A8D8
:100980001C902800ADF874000023002216A92398BB
:10099000806810F035FA25B0BDE8F08F2DE9F04100
:1009A00004000D001600F77915F11001A06810F091
:1009B000BFFA002821D1A089B0F5805F1DD0320098
:1009C00029002000FFF746FC002807D10123320050
:1009D0002900200010F0DAFE012000E13200290099
:1009E000A06810F0FAFD002807D101233200290089
:1009F000200010F0CBFE0120F1E03078012843D137
:100A0000A06D002810D17078002802D05FF0830814
:100A100001E05FF081084346DBB23200290020008C
:100A200010F0B4FE0120DAE0707800280ED0208AA1
:100A3000002803D0208AB188884212D08323320054
:100A40002900200010F0A2FE0120C8E0208A002822
:100A500007D0812332002900200010F097FE0120EA
:100A6000BDE02A0031002000A36D98478046404633
:100A7000C0B2FF2806D04346DBB232002900200076
:100A800010F084FE0120AAE03078002807D08523EA
:100A900032002900200010F079FE01209FE038008C
:100AA000C0B200281CD001283FD002281ED0032845
:100AB0001CD0042839D0052818D006281CD00728B7
:100AC00033D008281ED009282FD00A2820D00B2880
:100AD0002AD00C2822D00D2827D0102825D025E098
:100AE0002A0031002000FFF720FD77E02A003100C6
:100AF0002000FFF7F3FD71E02A003100200003F031
:100B0000C8FC6BE02A003100200003F02AFF65E0FA
:100B10002A003100200004F049F85FE02A0031008B
:100B2000200000F0D0FE59E058E057E0707800282F
:100B30004ED0B0884FF6FE71884241D115F11001B8
:100B4000A06810F0F5F9002807D1842332002900AD
:100B5000200010F01BFE012041E03800C0B2F02858
:100B600008D1B078002831D12A003100200004F0EB
:100B700072FD2BE03800C0B2F12808D1B07800280F
:100B800024D12A003100200004F0E4FD1EE03800EA
:100B9000C0B2F2280DD12A8D696A2000FFF778FCD7
:100BA00080464346DBB232002900200010F0EEFD03
:100BB0000CE0842332002900200010F0E7FD05E05E
:100BC000842332002900200010F0E0FD012006E01F
:100BD000822332002900200010F0D8FD0120BDE85A
:100BE000F081FEB504000D002E00228D616A68467A
:100BF00000F0FDF80700002F01D500200AE0606A30
:100C000038446062208DC01B20856A462100300078
:100C1000FFF7C4FEFEBD2DE9F24F98B00400189D09
:100C2000FF260027228D616A02A800F0E0F88046C6
:100C3000B8F1000F01D50020D6E0208DB0EB080000
:100C40002085608C092801D00020CDE09DF80A00A5
:100C5000002801D00020C7E09DF80800012801D03D
:100C60000020C1E09DF80F00002802D001282AD002
:100C70003FE0606A10F808008DF80400606A4044A4
:100C8000401C00F02EFDADF80600BDF806902800CF
:100C9000FFF77CFA81452CD1E86C002804D1812033
:100CA00006000120070024E002A800902300BDF800
:100CB00006209DF804102800D5F84CC0E047060037
:100CC0000120070015E0E86C002804D1812006000F
:100CD000012007000DE002A8009023004FF6FF72EC
:100CE000FF212800D5F84CC0E0470600012007008E
:100CF000FFE73000C0B2FF2875D09DF80E008DF8D8
:100D000000009DF80F008DF802008DF803605FF081
:100D1000080A5FF0000B0DF108095A465146484693
:100D200005F029FA00208DF8080000208DF8090050
:100D300001208DF80A0001208DF80B000020ADF88D
:100D40000C009DF800008DF80E000B208DF80F00B0
:100D5000052209A902A800F0CCF88146B9F1000FDC
:100D600001D5892040E009A80590CDF818900DF133
:100D70000200079002200890302004905FF0000AE3
:100D80000DF1300B52460499584605F0F4F90CA8C1
:100D900014F11001102213F03FFFA88AADF84000B3
:100DA0000920ADF84200A87BADF8440005A81290D8
:100DB0000220ADF84C0094F82A00FFF7D8FAADF8FD
:100DC0005400BDF8540050F48070ADF85400002079
:100DD0008DF8560000208DF85700002300220CA942
:100DE000A86810F00DF8380019B0BDE8F08F2DE9B3
:100DF000F84304000D0016000027032E02D25FF016
:100E0000FF3034E05FF008085FF000094A464146D1
:100E1000200005F0B0F9E85D10F003002070E85DF7
:100E2000C0B2800810F001006070E85DC0B2C00878
:100E300010F00100A070E85DC0B2000910F00100E0
:100E4000E0707F1C607800280AD0052E02D25FF087
:100E5000FF300CE005EB070000F043FCA080BF1C56
:100E6000E85DA0717F1CE85DE0717F1C3800BDE883
:100E7000F28370B40300002415000026587800287F
:100E800004D0052A02D25FF0FF3030E0032A02D2FC
:100E90005FF0FF302BE06D1ED8794855761C6D1E33
:100EA00098794855761C5878002809D06D1E988886
:100EB00080B2000A4855761C6D1E98884855761CED
:100EC000187810F0030004435878002801D054F03B
:100ED00004049878012801D154F00804D878012836
:100EE00001D154F010046D1E4C55761C300070BCBE
:100EF000704730B40300002400255878002804D03F
:100F0000052A02D25FF0FF302BE0032A02D25FF005
:100F1000FF3026E0187810F00300044358780028CA
:100F200001D054F004049878012801D154F0080449
:100F3000D878012801D154F010044C556D1C587814
:100F4000002807D0988848556D1C988880B2000A00
:100F500048556D1C987948556D1CD87948556D1CBD
:100F6000280030BC704700002DE9F14F82B00F001F
:100F700014001D00DDF83080002C16D02000FFF793
:100F800005F9062801D0002059E02000FFF706FAF5
:100F9000002801D0002052E02000FFF7F1F83900CE
:100FA000C9B2884201D0002049E0002000903B00F7
:100FB000DBB208228021029804F087F80600002E98
:100FC00001D100203BE0022200234FF6FD713000EA
:100FD00002F0D7F80FF2710030660FF2B1007066C0
:100FE0000FF2F110B065002D09D05FF0100916F175
:100FF000700A4A462900504613F00EFE0AE05FF0E0
:1010000010095FF0000A16F1700B52464946584627
:1010100005F0B1F841463000FFF7B4F8F46602225B
:101020000849300002F0C0F9002804D0300004F074
:10103000F2F8002003E0300004F0BBF83000BDE817
:10104000FE8F000020790108FEB504000D00160097
:101050000327002001900120009002AB0022002114
:10106000200000F012FD002801D000200DE09DF8C6
:1010700008003900C9B268547F1CA189280000F01B
:101080007CFBF81EA8703800C0B2FEBD2DE9F04F01
:1010900085B080460C0015001E00CDF808802800A1
:1010A000C0B2012801D0872037E027780298006F6E
:1010B00000282AD05FF006095FF0000A0DF10C0B42
:1010C00052464946584605F056F800208DF80C0067
:1010D0008DF80D7000200190022000900DF10E039C
:1010E00000221021404600F0D0FC002802D0002051
:1010F000ADF80E00D8F85430002203A94046DDF8C0
:1011000008C0DCF870C0E04706E03A00D2B2002325
:101110000021404602F035F8002005B0BDE8F08F10
:101120002DE9FE4305000E001700A846002001909F
:101130000120009002AB00220F21280000F0A5FC46
:10114000002801D0002042E05FF000094846C0B20C
:1011500008281DDA012010FA09F004003000C0B29E
:101160002100C9B2084210D03800C0B22100C9B273
:10117000084205D19DF80800A0438DF8080004E05E
:101180009DF8080020438DF8080019F10109DDE7FA
:101190009DF80800C00719D4D8F86C00002815D0B5
:1011A00000200190012000900DF109030022002190
:1011B000D8F86C0000F069FC002801D0002006E09F
:1011C0009DF80900002801D1002000E00120BDE8C1
:1011D000FE8300002DE9F84F8EB004000D001600CC
:1011E0002700B6F828805FF018095FF0000A0DF1BB
:1011F000200B52464946584604F0BDFF08A816F198
:101200001001102213F008FDA8798DF8300096F82F
:101210002A00FFF7ACF8ADF83200A878002801D01A
:10122000812024E1E87900280FD0022800F09B807B
:1012300053D3042809D0C0F0E280062800F0938040
:101240004BD3072800F0DB8010E1404680B2032832
:1012500001DA80200BE1386F002801D1812006E1FE
:101260005FF006095FF0000A0DF1140B5246494683
:10127000584604F080FFE879042802D101208DF857
:101280001400706A00788DF81500706A401C00F038
:1012900028FAADF81600E879002816D1404680B249
:1012A000052807DB706AC0788DF81800706A00792D
:1012B0008DF819009DF819209DF818102000FFF7EF
:1012C0002FFF002801D17020D1E0636D08AA05A985
:1012D0002000D7F870C0E047C9E0404680B202283D
:1012E00001DA8020C3E0786F002801D18120BEE0C0
:1012F0005FF005095FF0000A0DF10C0B52464946FC
:10130000584604F038FFE879052802D101208DF80D
:101310000C00706A00788DF80D00706A40788DF8C6
:101320000E00E879012816D1404680B2042807DB78
:10133000706A80788DF80F00706AC0788DF81000A0
:101340009DF810209DF80F102000FFF7E9FE0028FF
:1013500001D170208BE0636D08AA03A92000D7F8A3
:1013600074C0E04783E0404680B2042801DA802060
:101370007DE0B86F002801D1812078E05FF0080996
:101380005FF0000A0DF1040B52464946584604F03E
:10139000F2FEE879062802D101208DF80400706A77
:1013A00000788DF80500706A40788DF80600706A44
:1013B000801C00F096F9ADF80800E879022816D1F3
:1013C000404680B2062807DB706A00798DF80A0073
:1013D000706A40798DF80B009DF80B209DF80A107B
:1013E0002000FFF79DFE002801D170203FE0636DD3
:1013F00008AA01A92000D7F878C0E04737E0F86FC5
:10140000002801D1812032E05FF003095FF0000A7B
:10141000EB4652464946584604F0ADFEE8790728A7
:1014200002D101208DF80000E879032816D140464A
:1014300080B2022807DB706A00788DF80100706ABC
:1014400040788DF802009DF802209DF801102000E0
:10145000FFF766FE002801D1702008E0636D08AA3E
:1014600069462000D7F87CC0E04700E081200FB03B
:10147000BDE8F08F2DE9F84F06000F0014009846E4
:10148000002000903B00DBB206228021300003F0F8
:101490001CFE0500002D01D1002040E0002C09D0E9
:1014A0005FF00C0915F16C0A4A462100504613F012
:1014B000B3FB0AE05FF00C095FF0000A15F16C0B5A
:1014C00052464946584604F056FE012200234FF684
:1014D000FD71280001F055FE0FF24D0028660FF255
:1014E0008D0068660FF2C100A86501220D49280031
:1014F00001F05AFF002804D0280003F08CFE0020E1
:101500000DE0002200230021280001F03AFE4146B0
:101510002800FEF737FE280003F04BFE2800BDE848
:10152000F28F000070790108FEB504000D0016006E
:101530000327002001900120009002AB002200212F
:10154000200000F0A2FA002801D000200DE09DF854
:1015500008003900C9B268547F1CA189280000F036
:101560000CF9F81EA8703800C0B2FEBD2DE9F0419C
:1015700007000C0015001E002800C0B2012801D091
:1015800087200FE02078002802D05FF0010801E0FA
:101590005FF000084246D2B200230021380001F07B
:1015A000F0FD0020BDE8F0812DE9F84F8AB08046BB
:1015B0000C0015004746FF265FF018095FF0000A8F
:1015C0000DF1100B52464946584604F0D4FD04A8CC
:1015D00015F11001102213F01FFBA0798DF82000E7
:1015E00095F82A00FEF7C3FEADF82200E079002846
:1015F00003D0022825D012D350E0F86E002807D07F
:10160000D8F8542004A94046FB6E9847060005E030
:10161000002200230021404601F0B3FD40E0386F76
:10162000002807D0D8F8542004A940463B6F9847BB
:10163000060005E0012200230021404601F0A1FD43
:101640002EE0786F002807D0D8F8542004A940462F
:101650007B6F9847060020E0002001900120009059
:1016600002AB00220021404600F00FFA002802D011
:101670008620060014E09DF80800002803D0002012
:101680008DF8080002E001208DF808009DF8082080
:1016900000230021404601F074FD01E08120060096
:1016A0003000C0B2002806D1F86F002803D0E179DD
:1016B000B86FFA6F90473000C0B20BB0BDE8F08F42
:1016C0008167C267704781B00120ADF800006846AD
:1016D0000078012801D1012000E00020C0B201B053
:1016E000704701000878497850EA012080B27047BD
:1016F00010B504002000FFF7F4FF80B2A17850EA93
:10170000014010BD38B504002000FFF7EAFF0500D6
:10171000ADB2A01CFFF7E5FF55EA0045280032BD39
:1017200010B504002000FFF7EDFF217910BD10B5C2
:1017300004002000FFF7F4FF627900231302002267
:101740001043194310BD10B504002000FFF7EFFF50
:10175000A2790023130400221043194310BD38B5A9
:1017600005002800FFF7CEFF0400281DFFF7CAFF81
:10177000030022001000190034BD01700A0092B26B
:10178000120A4270704738B504000D00290089B272
:101790002000FFF7F2FF2800000CA07031BD38B523
:1017A00004000D0029002000FFF7EDFF2800000EC7
:1017B000E07031BD70B5060014001D00210030003E
:1017C000FFF7EDFF357170BD70B5060014001D0008
:1017D00022002B003000FFF7EDFF20002900080A4F
:1017E0000021707170BD70B5060014001D0022004C
:1017F0002B003000FFF7E8FF20002900080C002133
:10180000B07170BD70B5060014001D0022002B00E1
:101810003000FFF7E8FF20002900080E0021F071DA
:1018200070BD000030B40200506A12F12404A042DE
:1018300001D0506A00E00020002817D003008C6817
:1018400024889D682D88AC4207D20B605C684C6090
:101850000C6861604C68216011E0046812F1240595
:10186000AC4201D00068E7E70020E5E712F124046C
:101870000C60946A4C600C6861604C68216030BCFC
:10188000704730B40300586A13F12402904201D02B
:101890005A6A00E00022002A12D01400A0680088D2
:1018A0000D00ADB2A84205D0106813F12405A8427E
:1018B00004D001E0200004E01268ECE70022EAE72F
:1018C000002030BC70472DE9F8479FB004000D00A0
:1018D000160008275FF000080DF10809424639009C
:1018E000484604F048FC308D032806D280232A00A5
:1018F000310020000FF04AFF70E05FF00008706ACE
:101900004146C9B20844FFF7ECFE070018F102088F
:10191000706A4146C9B2405C8DF8040018F10108B4
:1019200000208DF8080068788DF80900A878002854
:1019300001D1012000E000208DF80A0001208DF87F
:101940000B00A888ADF80C00A8798DF80E000D20CA
:101950008DF80F00392210A902A8FFF7CAFA8246B3
:10196000BAF1000F06D580232A00310020000FF0C5
:101970000DFF33E0DAF13900009010A800EB0A0304
:1019800001AA390089B2200000F02BF8814619EB3A
:101990000A099DF80400002804D130000FF0A5FAD0
:1019A00000281BD1320004A92000FEF745FD04A841
:1019B00016F11001102213F02FF996F82A00FEF705
:1019C000D6FCADF8340010A80A904846ADF82C00BB
:1019D0000023002204A9A0680FF012FA20B0BDE88D
:1019E000F0872DE9F24F050016001F00DDF8288072
:1019F0005FF0000A5FF0000B002007F80B001BF1FE
:101A0000010B686A15F12401884201D06C6A00E07C
:101A10000024002C30D0A146D9F808000088BDF879
:101A2000001088421FD3D9F80800808800041AD417
:101A300050463178C0B288421ED21BF10300804567
:101A40001AD3D9F80800018807EB0B00FFF795FEC1
:101A50001BF1020BD9F80800807807F80B001BF186
:101A6000010B1AF1010A206815F12401884201D006
:101A70002468CEE70024CCE7002C01D10120387087
:101A800086F800A05846BDE8F28F2DE9F24F88B0E5
:101A9000804614001D00129EBDF820104046FFF73E
:101AA000F0FE0700002F01D186203CE09DF84C009D
:101AB000002805D0B8680079800701D48C2032E076
:101AC000002C02D0B86880782070002D01D0002E44
:101AD00005D1002C01D0002025E0892023E0B86842
:101AE0000079C00619D55FF020095FF0000AEB46C7
:101AF00052464946584604F03EFBB8680090002024
:101B00008DF8040002950396D8F8540007906A46B1
:101B10003900404601F022FD05E033002A0039007B
:101B2000404600F003F809B0BDE8F08F2DE9F0471A
:101B300005000E0017001C005FF000085FF00009B0
:101B4000B0688078082865D009286BD00A2871D041
:101B50000B2877D00C287DD00D2800F083800E282C
:101B600000F088800F2800F08D80102852D01828AF
:101B700050D0192856D01A285CD01B2862D01C28B7
:101B800068D01D286ED01E2874D01F287AD0202837
:101B900040D0212846D022284CD0232852D02428B7
:101BA00058D025285ED0262864D027286AD0282837
:101BB00030D0292836D02A283CD02B2842D02C28B7
:101BC00048D02D284ED02E2854D02F285AD0302837
:101BD00020D0312826D0382824D0392832D03A28AD
:101BE00050D041285ED042285CD0432871D0442890
:101BF0006FD0E02826D0E12824D0E22822D0E8289F
:101C000010D0E9280ED0EA281CD0F0283AD0F128CC
:101C100040D078E0002C02D18920814675E0012077
:101C2000804672E0022C02D2892081466DE00220BB
:101C300080466AE0032C02D28920814665E00320B9
:101C4000804662E0042C02D2892081465DE00420B7
:101C500080465AE0052C02D28920814655E00520B5
:101C6000804652E0062C02D2892081464DE00620B3
:101C700080464AE0072C02D28920814645E00720B1
:101C8000804642E0082C02D2892081463DE00820AF
:101C900080463AE0102C02D28920814635E010209F
:101CA000804632E0002C02D1892081462DE0F06888
:101CB00000780100C9B2FF2901D10021080001000C
:101CC000C9B2491C8846444502D2892189461CE094
:101CD0001BE0002C02D18920814616E0F068FFF756
:101CE00000FD010089B24FF6FF72914201D100213F
:101CF0000800010089B2891C8846444502D2892126
:101D0000894602E001E0862081464846C0B20028AC
:101D100006D1D6F80CA042465146380012F07CFF9E
:101D20004846C0B2BDE8F0872DE9F74F96B080462F
:101D30009946DDF888A0239FBDF860104046FFF764
:101D4000A0FD0600002E01D18620A2E0B068007937
:101D500010F00100C0B2002805D1380080B2800721
:101D600001D4882095E0002352464946B068807827
:101D700000F0AFFC05900598002801D5872088E089
:101D8000B068807800F099FF002826D004AA494660
:101D9000B068807800F063FE04000D009DF810002C
:101DA000002802D09DF8100073E0B068D0E9060169
:101DB00004F090FFCDE90201B068D0E9040104F01D
:101DC00089FFCDE90001B06882782000290000F089
:101DD0008AFF002801D187205BE0B0680079800687
:101DE00022D5202400250DF1180B2A002100584689
:101DF00004F0C1F9B068069001208DF81C00179816
:101E00000C90CDF82090CDF824A0ADF82870F068A3
:101E10000B90D8F854000D9006AA3100404601F00E
:101E20009DFB8DF8100028E03B009BB24A46310034
:101E3000404600F05EF88DF810009DF81000002874
:101E40001BD1B0680079400617D5202400250DF17C
:101E5000380B2A002100584604F08DF9B0680E9026
:101E600002208DF83C0017981490D8F85400159073
:101E70000EAA3100404601F071FB9DF810000028C9
:101E800002D09DF8100004E03100404600F004F854
:101E9000002019B0BDE8F08F38B505000C00286DA2
:101EA000002804D04FF47A71286D0FF085FA002CC9
:101EB00005D00022A0680188280002F007F831BD93
:101EC00070B505000E00310089B22800FFF7D9FC7B
:101ED0000400002C01D100200AE0A068007940072E
:101EE00001D4002004E021002800FFF7D5FF0120E5
:101EF00070BD2DE9F04706000F001400984600253C
:101F00005FF00009002C01D10120D5E0B86880788D
:101F1000082862D0092863D00A2864D00B2865D02D
:101F20000C2866D00D2867D00E2868D00F2869D0FD
:101F3000102852D0182850D0192851D01A2852D021
:101F40001B2853D01C2854D01D2855D01E2856D0ED
:101F50001F2857D0202840D0212841D0222842D005
:101F6000232843D0242844D0252845D0262846D0ED
:101F7000272847D0282830D0292831D02A2832D005
:101F80002B2833D02C2834D02D2835D02E2836D0ED
:101F90002F2837D0302820D0312821D038281FD002
:101FA000392823D03A282DD0412831D042282FD0AB
:101FB000432849D0442847D0E02817D0E12815D03D
:101FC000E22813D0E8280BD0E92809D0EA280DD060
:101FD000F02817D0F12818D059E00120050058E06A
:101FE0000220050055E00320050052E00420050012
:101FF0004FE0052005004CE00620050049E00720E1
:10200000050046E00820050043E01020050040E000
:102010003869002802D1892081463AE02078010001
:10202000C9B2FF2905D1FF21FA68117000210D0006
:102030002FE00100C9B2491C0D003969A94202D242
:102040008921894625E024E03869022802D28920C6
:1020500081461EE02000FFF744FB8246504680B2D6
:102060004FF6FF71884207D14FF6FF71F868FFF70E
:1020700084FB002005000CE0504680B2801C050067
:102080003869A84202D28920814602E001E0862018
:1020900081464846C0B200280CD1404680B2C007F5
:1020A00008D4002D06D0D7F80CA02A0021005046F5
:1020B00012F0B2FD4846C0B2BDE8F0872DE9F04706
:1020C00004008846150000265FF0FF372000C0B2EC
:1020D000002800F0A180082800F0E780092800F01F
:1020E000DA800A2800F0CD800B2800F0C0800C2890
:1020F00000F0B3800D2800F0A6800E2800F0998033
:102100000F2800F08C80102800F0DB80182800F0E9
:102110002681192800F019811A2800F00C811B284B
:1021200000F0FF801C2800F0F2801D2800F0E58000
:102130001E2800F0D8801F2800F0CB80202800F057
:10214000B480212800F0A780222800F09A8023285C
:1021500000F08D80242800F08080252873D0262868
:1021600067D027285BD0282800F04B81292800F071
:102170003E812A2800F031812B2800F024812C2870
:1021800000F017812D2800F00A812E2800F0FD8034
:102190002F2800F0F080302800F0878031287AD096
:1021A000382800F03A81392800F042813A2800F0BE
:1021B0004981412800F05281422800F0598143288A
:1021C00000F06081442800F06881482800F08A818E
:1021D0004C2800F09181502800F09881512800F09F
:1021E0009F81E02800F0A681E12800F0AD81E2287F
:1021F00000F0B481E82800F0BB81E92800F0C2813A
:10220000EA2800F0C981F02800F05281F12800F09E
:102210005B81FF2840F0CA8100200700C6E1701CE6
:102220008542C0F0C381FF2088F8000018F1010842
:10223000761C701C8542C0F0B981FF2088F8000030
:1022400018F10108761C701C8542C0F0AF81FF2098
:1022500088F8000018F10108761C701C8542C0F057
:10226000A581FF2088F8000018F10108761C701C79
:102270008542C0F09B81FF2088F8000018F101081A
:10228000761C701C8542C0F09181FF2088F8000008
:1022900018F10108761C701C8542C0F08781FF2070
:1022A00088F8000018F10108761C701C8542C0F007
:1022B0007D81FF2088F8000018F10108761C3700A6
:1022C00074E1002088F8000018F1010801200700DF
:1022D0006CE1701C8542C0F06981002088F8000024
:1022E00018F10108761C701C8542C0F05F81002047
:1022F00088F8000018F10108761C701C8542C0F0B7
:102300005581002088F8000018F10108761C701C27
:102310008542C0F04B81002088F8000018F10108C8
:10232000761C701C8542C0F04181002088F80000B6
:1023300018F10108761C701C8542C0F0378100201E
:1023400088F8000018F10108761C701C8542C0F066
:102350002D81002088F8000018F10108761C701CFF
:102360008542C0F02381002088F8000018F10108A0
:10237000761C37001AE1701C8542C0F017810020DE
:1023800088F8000018F10108761C701C8542C0F026
:102390000D81002088F8000018F10108761C701CDF
:1023A0008542C0F00381002088F8000018F1010880
:1023B000761C701C8542C0F0F980002088F800006F
:1023C00018F10108761C701C8542C0F0EF800020D7
:1023D00088F8000018F10108761C701C8542C0F0D6
:1023E000E580002088F8000018F10108761C701CB8
:1023F0008542C0F0DB80002088F8000018F1010859
:10240000761C701C8542C0F0D180802088F80000C6
:1024100018F10108761C3700C8E0022DC0F0C68014
:1024200047F6FF714046FFF7A8F902200700BDE01C
:10243000042DC0F0BB805F494046FFF7B0F904208F
:102440000700B3E0082DC0F0B1807FF001025A4BC5
:102450004046FFF7D7F908200700A7E0022DC0F09B
:10246000A580FF214046FFF788F9022007009DE084
:10247000022DC0F09B80FF214046FFF77EF902202D
:10248000070093E0042DC0F091804FF6FF714046A5
:10249000FFF785F90420070088E0042DC0F086804E
:1024A0004FF6FF714046FFF77AF9042007007DE000
:1024B000082D7BD35FF0FF325FF0FF334046FFF71C
:1024C000A1F90820070071E0102D6FD35FF010090B
:1024D0005FF0000A52464946404603F04CFE102089
:1024E000070063E0022D61D34FF6FF714046FFF70E
:1024F00044F90220070059E0022D57D34FF6FF712F
:102500004046FFF73AF9022007004FE0022D4DD375
:102510004FF6FF714046FFF730F90220070045E013
:10252000022D43D34FF6FF714046FFF726F90220F4
:1025300007003BE0042D39D35FF0FF314046FFF741
:102540002EF90420070031E0042D2FD35FF0FF3176
:102550004046FFF724F90420070027E0042D25D387
:102560005FF0FF314046FFF71AF9042007001DE035
:10257000022D1BD34FF6FF714046FFF7FEF80220F5
:10258000070013E0022D11D34FF6FF714046FFF70D
:10259000F4F80220070009E0042D07D35FF0FF31B3
:1025A0004046FFF7FCF804200700FFE73800BDE8CD
:1025B000F0870000FEFFFF00FFFF1F000100080082
:1025C000C0B2002800F0818008286CD009286CD0A7
:1025D0000A286CD00B286CD00C286CD00D286CD03D
:1025E0000E286CD00F286CD010285CD018285AD038
:1025F00019285AD01A285AD01B285AD01C285AD029
:102600001D285AD01E285AD01F285AD020284AD018
:1026100021284AD022284AD023284AD024284AD028
:1026200025284AD026284AD027284AD028283AD018
:1026300029283AD02A283AD02B283AD02C283AD028
:102640002D283AD02E283AD02F283AD030282AD018
:1026500031282AD0382828D039282AD03A2830D012
:10266000412832D0422830D043282ED044282CD0C4
:1026700048282AD04C2828D0502826D0512824D0A9
:10268000E02816D0E12814D0E22812D0E8280CD097
:10269000E9280AD0EA280CD0F02812D0F12812D06C
:1026A000FF2812D013E0012012E0022010E00320E6
:1026B0000EE004200CE005200AE0062008E00720D8
:1026C00006E0082004E0102002E0002000E00020E6
:1026D00070472DE9F04706000C0015001F00380078
:1026E000C0B20F2802D35FF0FF30A1E03000C0B2CB
:1026F000FFF764FF0100012906DB8D4202D25FF083
:10270000FF3095E0080093E0002C01D128008FE015
:102710005FF0FF393000C0B2413801280AD9801E6D
:10272000012814D9401F27D0001F4BD0001F0128BB
:1027300022D974E0002D72D02078FF2802D15FF0FA
:10274000010903E094F8009019F1010967E0022DF6
:1027500065D32000FEF7C5FF8246504680B24FF693
:10276000FF71884202D15FF0020904E0D1461FFAEE
:1027700089F919F1020952E0032D50D320788046DF
:10278000601CFEF7AEFF824603208146504680B2B1
:10279000002816D0504680B24FF6FF71884210D004
:1027A0007B1CDBB2B5EB090204EB09014046C0B269
:1027B000FFF78FFF00283BD410EB0909BAF1010A9B
:1027C000E4E72CE0022D2AD32000FEF78AFF8246A0
:1027D00002208146504680B200281FD0504680B269
:1027E0004FF6FF71884219D019F10100854215D3C7
:1027F00014F80900804619F101097B1CDBB2B5EB26
:10280000090204EB09014046C0B2FFF762FF00284D
:1028100004D410EB0909BAF1010ADBE7FFE7B9F1CB
:10282000000F01D44D4502D25FF0FF3000E0484672
:10283000BDE8F08701000800C0B2202805DB0800D1
:10284000C0B2282801DA012026E00800C0B22828FA
:1028500005DB0800C0B2302801DA01201CE00800C6
:10286000C0B2382807D00800C0B2392803D0080009
:10287000C0B23A2801D101200EE00800C0B2E02821
:1028800007D00800C0B2E12803D00800C0B2E22897
:1028900001D1012000E0002070470000F0B50400E5
:1028A0000D0005995FF0000E5FF0000C1000C0B243
:1028B000082800F0C680092800F0B6800A2800F039
:1028C000A6800B2800F096800C2800F086800D284A
:1028D00076D00E2867D00F2858D0102845D0182859
:1028E00000F0AF80192800F09F801A2800F08F8038
:1028F0001B2800F07F801C286FD01D2860D01E2868
:1029000051D01F2842D0202800F09B80212800F0C1
:102910008B8022287BD023286CD024285DD02528CA
:102920004ED026283FD0272830D0282800F0898094
:10293000292879D02A286AD02B285BD02C284CD083
:102940002D283DD02E282ED02F281FD0302878D0EB
:10295000312869D0E2284DD0E82865D0E92863D035
:10296000EA2847D0F02811D076E0002902D15FF0A4
:10297000FF3073E000260027BD4201D1B44201D0F0
:10298000012000E000201870012067E08E4502D38E
:102990005FF0FF3062E003F80E401EF1010E240AE2
:1029A00044EA05642D0A8E4502D35FF0FF3055E0FE
:1029B00003F80E401EF1010E240A44EA05642D0AB4
:1029C0008E4502D35FF0FF3048E003F80E401EF161
:1029D000010E240A44EA05642D0A8E4502D35FF0F5
:1029E000FF303BE003F80E401EF1010E240A44EADA
:1029F00005642D0A8E4502D35FF0FF302EE003F808
:102A00000E401EF1010E240A44EA05642D0A8E458B
:102A100002D35FF0FF3021E003F80E401EF1010EFB
:102A2000240A44EA05642D0A8E4502D35FF0FF3084
:102A300014E003F80E401EF1010E240A44EA056476
:102A40002D0A8E4502D35FF0FF3007E003F80E40F9
:102A50001EF1010E704601E05FF0FF30F0BD2DE980
:102A6000F84F83460E0092460027002400255FF0B1
:102A700000085FF000095846C0B200F01EF90028B7
:102A800005D18D208AF800000020002113E10020EC
:102A90008AF800005846C0B2082800F0978009283C
:102AA00000F08A800A287DD00B2871D00C2865D0D0
:102AB0000D2859D00E284DD00F2846D0102800F0F0
:102AC0008580182800F08280192875D01A2869D0CE
:102AD0001B285DD01C2851D01D2845D01E2839D078
:102AE0001F2832D0202871D0212865D0222859D023
:102AF00023284DD0242841D0252835D0262829D078
:102B0000272822D0282800F0AC80292800F09F80B8
:102B10002A2800F092802B2800F085802C2878D07D
:102B20002D286CD02E2860D02F2859D030284DD099
:102B3000312841D0E2282BD0E8283DD0E9283BD0ED
:102B4000EA2825D0F02840F0B180F05D0021044350
:102B50000D437F1CF05D00213A00D2B2D20003F099
:102B6000A7FB04430D437F1CF05D00213A00D2B265
:102B7000D20003F09DFB04430D437F1CF05D002158
:102B80003A00D2B2D20003F093FB04430D437F1C02
:102B9000F05D00213A00D2B2D20003F089FB044379
:102BA0000D437F1CF05D00213A00D2B2D20003F049
:102BB0007FFB04430D437F1CF05D00213A00D2B23D
:102BC000D20003F075FB04430D437F1CF05D002130
:102BD0003A00D2B2D20003F06BFB204329436AE0F3
:102BE000F05D002104430D437F1CF05D00213A009D
:102BF000D2B2D20003F05CFB04430D437F1CF05DB6
:102C000000213A00D2B2D20003F052FB04430D433C
:102C10007F1CF05D00213A00D2B2D20003F048FBE5
:102C200004430D437F1CF05D00213A00D2B2D20074
:102C300003F03EFB04430D437F1CF05D00213A008E
:102C4000D2B2D20003F034FB04430D437F1CF05D8D
:102C500000213A00D2B2D20003F02AFB04430D4314
:102C60007F1CF05D00213A00D2B2D20003F020FBBD
:102C7000204329433A00571CB25C120615D5082F91
:102C800013D204000D0001200021D7F10802D2B2B6
:102C9000D20003F00DFB401E71F100013A00D2B2E8
:102CA000D20003F005FB2043294304E08D208AF87D
:102CB000000000200021BDE8F48F01000022080080
:102CC000C0B20838082809D91038192806D9CA38D6
:102CD00004D0801F022801D9083801D1012000E06A
:102CE0000020C0B270472DE9F00F04000D00DDE9AF
:102CF0000867DDE90A891000C0B2102846D01828FC
:102D000052D0192866D01A287DD01B2800F0968052
:102D10001C2800F0AD801D2800F0C1801E2800F0A6
:102D2000D8801F2800F0F18020283DD0212851D0E4
:102D3000222868D0232800F08180242800F0988081
:102D4000252800F0AC80262800F0C380272800F05A
:102D5000DC80282800F0E480292800F0FC802A2864
:102D600000F013812B2800F02A812C2800F04581E7
:102D70002D2800F05B812E2800F070812F2800F0B4
:102D80008581302810D0312824D089E1002D03D14D
:102D9000FF2C01D101209FE1002D04DB01DC022C7E
:102DA00001D3002098E17BE1002D03D1FF2C01D15C
:102DB000012091E1002000218D4208DB01DC8442EA
:102DC00005D3002D05DB02DCB4F5807F01D30020A4
:102DD00082E165E14FF6FF7000218D4203D184420C
:102DE00001D1012078E1002000218D4208DB01DCC7
:102DF000844205D3002D05DB02DCB4F5803F01D30E
:102E0000002069E14CE17FF07F4000218D4203D139
:102E1000844201D101205FE1002000218D420ADBC4
:102E200001DC844207D35FF0807000218D4204DB17
:102E300001DC844201D300204EE131E15FF0FF303C
:102E400000218D4203D1844201D1012044E10020C0
:102E500000218D4209DB01DC844206D300200121E0
:102E60008D4204DB01DC844201D3002034E117E110
:102E7000FF2D04D1B4F1FF3F01D101202CE100204E
:102E800000218D4208DB01DC844205D3B5F5807F4B
:102E900004DB01DC002C01D300201DE100E15FF028
:102EA000FF304FF6FF718D4203D1844201D10120E2
:102EB00012E1002000218D4208DB01DC844205D3B1
:102EC000B5F5803F04DB01DC002C01D3002003E1D9
:102ED000E6E05FF0FF307FF07F418D4203D1844216
:102EE00001D10120F8E0002000218D420ADB01DC45
:102EF000844207D300205FF080718D4204DB01DC47
:102F0000844201D30020E7E0CAE05FF0FF305FF0C9
:102F1000FF318D4203D1844201D10120DCE0BFE0CA
:102F20007FF07F005FF0FF318D4203D1844201D1F9
:102F30000120D1E07FF07F005FF0FF318D4207DBA1
:102F400001DC844204D3002D04DB01DC802C01D39E
:102F50000020C1E0A4E062485FF0FF318D4203D160
:102F6000844201D10120B7E05D485FF0FF318D421E
:102F700008DB01DC844205D3002D05DB02DCB4F55F
:102F8000004F01D30020A7E08AE056485FF0FF31F0
:102F90008D4203D1844201D101209DE051485FF070
:102FA000FF318D4208DB01DC844205D3002D05DBB7
:102FB00002DCB4F5000F01D300208DE070E05FF07B
:102FC00000405FF0FF318D4203D1844201D10120E6
:102FD00082E05FF000405FF0FF318D420ADB01DCF0
:102FE000844207D35FF0004000218D4204DB01DC06
:102FF000844201D300206FE052E000207FF07F0187
:103000008D4203D1844201D1012065E000207FF090
:103010007F018D4207DB01DC844204D3802D04DB79
:1030200001DC002C01D3002056E039E000202C49BF
:103030008D4203D1844201D101204DE00020284976
:103040008D4208DB01DC844205D3B5F5004F04DB7B
:1030500001DC002C01D300203EE021E000202149CA
:103060008D4203D1844201D1012035E000201D4969
:103070008D4208DB01DC844205D3B5F5000F04DB8B
:1030800001DC002C01D3002026E009E000205FF0E5
:1030900000418D4203D1844201D101201CE0FFE7B1
:1030A00056EA080057EA09015FF0000A5FF0000BDA
:1030B000594503D1504501D101200DE0BD4209DB46
:1030C00001DCB44206D3A94504DB01DCA04501D3F1
:1030D000012000E00020C0B2BDE8F00F7047000002
:1030E0000080FFFF000080FF2DE9F84785B0060053
:1030F0000F0015001C0000208DF809005FF0080883
:103100005FF000090DF10C0A4A464146504603F0B3
:1031100032F8002001900820009003AB0DF1090265
:10312000390089B23000FEF7B0FC8DF80800002CA1
:1031300002D09DF8080020709DF80800002802D0F9
:10314000002000211AE002AA03A99DF80900FFF758
:1031500086FC02000B00002C02D09DF808002070B5
:103160009DF80800002802D00020002106E0002D74
:1031700002D09DF8090028701000190006B0BDE8C3
:10318000F0872DE9F04387B08046894614001D0082
:10319000B8F1000F01D1872042E004AB0DF111021C
:1031A000494689B24046FFF79FFF06000F009DF891
:1031B0001000002802D09DF8100031E0AF4203D18A
:1031C000A64201D100202BE000200021CDE9020120
:1031D00000200021CDE900019DF8112020002900E8
:1031E000FFF781FD002801D1872019E022002B0084
:1031F00005A8FEF707FB022001900820009005AB10
:103200004A4692B200214046FEF78EFD8DF810002E
:103210009DF81000002802D09DF8100000E000206A
:1032200007B0BDE8F0832DE9F14F82B08B469046A0
:1032300099465FF0000A6B460DF10102594689B2CA
:103240000298FFF751FF02000B009DF800000028D4
:1032500002D09DF800003AE012EB080453EB090598
:1032600026002F009DF80100FFF7A8F901900198B2
:10327000012815D002280BD0042802D0082816D126
:1032800017E034F0000035F0FF3106000F0010E0C9
:103290004FF6FF7000212040294006000F0008E093
:1032A00014F0FF0015F0000106000F0001E00120FE
:1032B00082465046C0B2002801D0862007E0320086
:1032C0003B00594689B20298FFF75BFF0020BDE83A
:1032D000FE8F2DE9F84384B005000E0014005FF066
:1032E00008085FF0000902AF4A464146380002F084
:1032F00042FF002001900820009002AB0022310024
:1033000089B22800FEF7C1FB0700002C00D027700F
:103310003800C0B2002802D00020002102E002A83C
:10332000FEF71DFA05B0BDE8F0832DE9F04385B046
:103330008046894614001D00B8F1000F01D1872096
:103340002EE002AA494689B24046FFF7C2FF0600B6
:103350000F009DF80800002802D09DF808001FE02B
:10336000AF4203D1A64201D1002019E022002B0078
:1033700003A8FEF747FA022001900820009003AB53
:103380004A4692B200214046FEF7CEFC8DF8080076
:103390009DF80800002802D09DF8080000E00020F9
:1033A00005B0BDE8F08300002DE9F64F87B08046F8
:1033B0000F00D8F808000690002F02D008980028C7
:1033C00001D10020C7E05FF000090898814580F036
:1033D000BE80282000FB09F03844007910F0F00F7F
:1033E00008D0282000FB09F03844C068002801D12B
:1033F0000120B0E0282000FB09F0395A4046FEF7D2
:1034000040FA0600002E03D03100404600F0B6F826
:1034100018255FF0000AEB4652462900584602F094
:10342000AAFE6846009068460190282000FB09F03B
:1034300038440290282000FB09F0384400798007C6
:103440000DD5282000FB09F03844408CADF816005B
:10345000282000FB09F03844008CADF81400282027
:1034600000FB09F03844007910F03000302808D112
:1034700000200400282000FB09F0384480680490F4
:1034800035E0282000FB09F03844806800281FD070
:10349000282000FB09F03844806804900298807866
:1034A000412803D002988078422803D10498401C18
:1034B00004900AE002988078432803D0029880782C
:1034C000442802D10498801C0490049804000EE063
:1034D000282000FB09F038448078FFF76FF804904B
:1034E0000498002801D18D2035E0049804000023C1
:1034F00033A214F1180106980EF078FA0500002D99
:1035000001D1892027E01826EA46320051462800DA
:1035100011F082FB002C0AD015F11800E86000269B
:10352000D5F80CA032002100504602F024FE2900FC
:103530004046FEF777F9E868002805D02A69E9686F
:10354000A8688078FEF7BAFD19F101093DE7404609
:1035500000F038FF002009B0BDE8F08F70B504001E
:103560000D001600A868C068002805D031002000B2
:10357000AA68D268904700E0012070BD38B5040009
:103580000D00A868007980070BD50022A868018883
:10359000200000F0F7FD0122A8680188200000F05B
:1035A000F1FD6868296848602868696808602D60CE
:1035B0006D60002302A22900A0680EF026FA31BD3A
:1035C0000000000070B50500686A15F1240188420A
:1035D00001D06C6A00E00024002C05D026003100E8
:1035E0002800FFF7CBFFEFE770BD00000B00027E65
:1035F000002A04D0027EA42A01D0027EA32A7047AA
:1036000038B504000D0015F10801286800F04EF8E7
:1036100068680DF09FFE0023CDA22900286880680D
:103620000EF0F3F931BD2DE9F84307000E00140048
:10363000002C04D13100380000F038F833E00023CA
:10364000C3A29821B8680EF0D1F90500002D01D170
:10365000002029E05FF098085FF000094A464146E3
:10366000280002F088FD2A00DFF8981CB8680DF0E9
:1036700021FE68606868002807D10023B4A22900F1
:10368000B8680EF0C2F900200EE02F605FF09008DD
:1036900015F1080942463100484611F0BDFA2100F3
:1036A00068680DF089FE0120BDE8F2832DE9F84F2E
:1036B000CCB005000E00002400208DF80400288AFC
:1036C000002801D0012000E000208DF80500288AA4
:1036D000ADF80800287F002803D101208DF80600EE
:1036E00002E000208DF8060001208DF807000DF0A3
:1036F000D8FF8DF80A000A208DF80B00052203A9D7
:1037000001A8FDF7F6FB0700012FC0F2968003A881
:103710001AA92200D2B241F832003800C0B21AA968
:103720002200D2B201EBC2014860641C0020804636
:10373000B8F10C0F31D20C2000FB08F03044007AB5
:1037400000282AD00C2000FB08F0304409301AA9C8
:103750002200D2B241F8320003201AA92200D2B2CC
:1037600001EBC2014860641C0C2000FB08F03044EF
:1037700040681AA92200D2B241F832000C2000FBA6
:1037800008F03044007A1AA92200D2B201EBC2013B
:103790004860641C18F10108CAE7002206A9280045
:1037A000FCF74AFE06A8DFF8641B0968102211F036
:1037B00033FA0120ADF83C00BDF83C0050F00400A5
:1037C000ADF83C00BDF83C0050F48070ADF83C0012
:1037D000A87CAB2805D0BDF83C0050F00200ADF845
:1037E0003C0001208DF83E0000208DF83F001AA813
:1037F0000C902000C0B2ADF83400AB68DFF8102B9D
:1038000006A9A8680DF0FCFA8DF800009DF80000EC
:10381000002812D05FF020095FF0000A0DF1480B7C
:1038200052464946584602F0A6FC9DF800008DF825
:103830006000A96812A8FFF7D9FE5FF00009B9F18E
:103840000C0F1FD20C2000FB09F030444068002808
:1038500018D000233EA20C2000FB09F03044416840
:10386000A8680EF0D2F800200C2101FB09F13144C8
:10387000486000200C2101FB09F13144087219F164
:103880000109DCE74DB0BDE8F08F814201D20800AC
:10389000FFE7704738B504000D00A06B002801D188
:1038A00000200DE094F83D00002801D0012007E041
:1038B000012084F83D002900A06B0DF07DFD012062
:1038C00032BDF8B504000D0016001F00206C002862
:1038D00001D0012010E084F83C5026646764002188
:1038E0002000FFF7D7FF002805D10020206400202A
:1038F0006064012000E00020F2BD2DE9F0470400E3
:103900000D0016001F00DDF82080DDF82490002354
:103910000FA2494620000EF069F868606868002828
:1039200001D1002011E0D5F804A04A464146504696
:1039300011F072F985F808902E80310089B215F1E6
:103940000900FDF71AFFEF720120BDE8F0870000C3
:10395000000000002DE9F84306000F00306B16F15F
:103960003001884201D0306B00E00020002801D1F6
:10397000002042E0306B16F13001884201D0356BF7
:1039800000E00025002D37D0A846B8F822004FF6F9
:10399000FF71884227D0B8F8200000280ED0D8F850
:1039A0001010B8F820904FF47A7000FB09194946BE
:1039B00038000DF02FFD0400002C14D1B8F82200BF
:1039C000002810D0D8F81010B8F822904FF47A7070
:1039D00000FB0919494638000DF01CFD0400002CBD
:1039E00001D1012009E0286816F13001884201D098
:1039F0002D68C7E70025C5E70020BDE8F283000079
:103A00002DE9F34F81B02DED048BB0B036980390C3
:103A10000020059000200790DFF8F80806900020AD
:103A20008DF80B005FF0000B039890F83C008DF8C8
:103A3000080000208DF810000020039981F83D0057
:103A40000020039981F83C000398006B0399303102
:103A5000884202D00398006B00E00020002800F0AC
:103A6000F98135980DF0A6FD099009990398FFF7A3
:103A700071FF002804D0099810F57A700B9001E0CE
:103A800009980B90902600270DF130083A0031007C
:103A9000404602F070FB0020824600208DF80900AD
:103AA0000398006B03993031884202D00398056B6C
:103AB00000E00025002D00F07D819DF808008DF8C4
:103AC0000A00DFF850080A902C00608C4FF6FF7156
:103AD000884200F066819DF80800002816D1208CED
:103AE000002813D02169268C4FF47A7000FB06164B
:103AF00031000B980DF08EFC08900898002805D036
:103B000008990698FFF7C1FE06904AE19DF8080063
:103B1000002815D1608C002812D02169668C4FF4E2
:103B20007A7000FB061631000B980DF073FC0A90BA
:103B30000A98002804D101208DF80A000998206114
:103B4000039882890398817B35980DF0B5FA002897
:103B500005D10A990698FFF798FE069021E105988D
:103B600000280BD100238BA24FF4807135980DF003
:103B70003DFF05900598002800F06C810020019021
:103B80004FF480700090059B0DF11102A1890398FC
:103B9000FDF77BFF002803D0200000F008FB97E032
:103BA00000234FF4807205999DF81100FEF791FDF6
:103BB00007900798002803D5200000F0F8FA87E066
:103BC0000798002800F08480A07B382837DBA07B92
:103BD0003B2834DA0DF101020599A07B01F091FF39
:103BE000B0EE408AF0EE608A9DF80100002803D014
:103BF000200000F0DCFA6BE051EC180BD4E906234E
:103C000002F066FB41EC190B51EC190B002200236A
:103C100002F076FF05D251EC190B91F0004141EC16
:103C2000190B9DF80800002806D151EC190BD4E9B6
:103C30000A2302F065FF4BD384ED068B43E0A07BA3
:103C4000FEF7F8FD00282ED06A460599A07BFEF706
:103C500006FF804689469DF80000002803D020001A
:103C600000F0A5FA34E0D4E90601B8EB000679EBE0
:103C70000107002000218F4205DC01DB864202D2D1
:103C8000764277EB47079DF80800002808D13000FE
:103C9000390002F0A7FCD4E90A2302F031FF17D360
:103CA000C4E906890FE0079A059900200DF0BCFED3
:103CB00001009DF80800002804D1208B0A0092B270
:103CC000904205D0218301208DF80A0009982061D7
:103CD0009DF80A0000285FD0079800285CD09DF866
:103CE0000B00401C8DF80B005046C0B20C2807D0CA
:103CF0009DF80900079951FA80F0C01C372814D3A9
:103D00005A460CA90398FFF78EFC1BF1C80B9026AE
:103D100000270DF130083A003100404602F02BFA3E
:103D20000020824600208DF8090007980190059830
:103D30000090A37BA2890CA95646F6B20C204643FC
:103D400031443598FFF7D9FD00282AD01AF1010A2D
:103D50009DF809000799C91C08188DF80900208CE6
:103D6000002805D0218C4FF47A70414308910BE074
:103D7000608C002805D0618C4FF47A704143089123
:103D800002E0DFF89005089008990698FFF77DFD9E
:103D9000069006E0000000000A990698FFF775FDFE
:103DA0000690286803993031884201D02D6881E659
:103DB00000257FE6059800284CD09DF80B000028D0
:103DC00042D0012007900120059908705046C0B2EA
:103DD0000C2807D09DF80900079951FA80F0C01C03
:103DE000372814D35A460CA90398FFF71CFC1BF183
:103DF000C80B902600270DF130083A0031004046EC
:103E000002F0B9F90020824600208DF809000798D9
:103E100001900598009030234FF6FE720CA956468B
:103E2000F6B20C20464331443598FFF766FD002872
:103E300001D01AF1010A5046C0B2002804D05A46F7
:103E40000CA90398FFF7EFFB0023B8A2059935985A
:103E50000DF0DBFD0698C82801D2C8200690039813
:103E6000006C00280CD00398426C06990398039BC1
:103E70001B6C98470020039908640020039948644C
:103E8000012304AA40F20C4135980DF069FB00288B
:103E900002D000208DF810009DF81000002810D1ED
:103EA0000398006B03993031884202D00398006B6D
:103EB00000E00020002804D006990398806B0DF0E4
:103EC0007BFA30B0BDEC048BBDE8F78FF8B5050088
:103ED0000E00170000208DF8000001236A4640F212
:103EE0000C41A8680DF03CFB002802D000208DF8A2
:103EF00000009DF8000000280DD13A00D2B2310038
:103F000089B2280000F01AF80400002C03D0C82160
:103F10002800FFF7BFFCF1BD70B50500286B15F157
:103F20003001884201D02C6B00E00024002C04D02A
:103F30002600300000F0FCF8F0E770BD70B404001B
:103F40000B001000C0B2012801D100201CE0206B42
:103F500014F13001884201D0216B00E000210029DA
:103F600011D00D00A8891E00B6B2B04205D0086875
:103F700014F13006B04204D001E0280004E00968E2
:103F8000EDE70021EBE7002070BC70472DE9F0471A
:103F900006000F0090469946CA46B7F5004F01D07B
:103FA00000201BE0DAF830001AF13001884202D01C
:103FB000DAF8304000E00024002C0ED02500012269
:103FC0002900300000F046F920681AF130018842DB
:103FD00001D02468F0E70024EEE70020BDE8F08778
:103FE0002DE9FF4105000E00AF6800234FA24FF4FA
:103FF000807138000DF0FAFC0400002C01D18920FA
:104000005DE0012001904FF48070009023000DF1DD
:104010000902B1892800FDF738FD8DF808009DF8E8
:104020000800002802D09DF8080048E0B07B9DF809
:104030000910884201D08D2041E000234FF48072A6
:1040400021009DF80900FEF744FB8046B8F1000FFF
:1040500001D5892033E0B07BFEF7ECFB002806D1C8
:104060004246210000200DF0DFFC308320E0B07BD1
:1040700002F074F800280DD002AA2100B07B01F0F4
:1040800040FD86ED060B9DF80800002810D09DF835
:10409000080014E002AA2100B07BFEF7E0FCC6E9AC
:1040A00006019DF80800002802D09DF8080006E0EF
:1040B00000231EA2210038000DF0A7FC002004B050
:1040C000BDE8F0812DE9F04106000F00D6F8088028
:1040D000327FB9893000FFF731FF0500002D01D094
:1040E000280021E0002311A2382140460DF07EFC7B
:1040F0000400002C01D1002016E038252A003900E8
:10410000200010F089FD2460646016F1300020600A
:10411000706B606020684460606804600122210068
:10412000404600F097F82000BDE8F0810000000054
:104130007CB50400A568AE6800208DF800006068BA
:10414000216848602068616808602460646000231A
:104150006DA2210030000DF058FC01236A4640F2A8
:104160000C4130000DF0FCF9002802D000208DF841
:1041700000009DF80000002803D1C8212800FFF7A7
:1041800089FB73BDF8B505000E0017003A00D2B2E6
:10419000310089B22800FFF7D1FE0400002C01D1C4
:1041A000002003E02000FFF7C3FF0120F2BD38B577
:1041B0000400A068856800208DF800004FF6FF70AD
:1041C00060840020208401236A4640F20C412800CC
:1041D0000DF0C6F9002802D000208DF800009DF8EF
:1041E0000000002803D1C821A068FFF753FB31BDB0
:1041F0000A884FF6FF739A4210D00A88002A0DD021
:104200000A884FF6FF739A4202D14FF6FE720A8077
:104210000A8803889A4201D20022028070477CB546
:1042200004000D001600A88AADF80200E88AADF877
:10423000000069460DF10200FFF7DAFFBDF8020049
:10424000B084BDF80000F08400223100200000F0AE
:1042500001F873BD7CB504000D001600A88C2884FD
:10426000E88C6884288C4FF6FF71884206D1688CF0
:10427000002803D13D2068840020288495ED0C0B94
:1042800085ED0A0B20000DF095F928613000C0B2D1
:10429000002813D001236A4640F20C4120000DF0A3
:1042A0005FF9002802D000208DF800009DF8000082
:1042B000002803D1C821A868FFF7ECFA73BD38B510
:1042C00004000D002800C0B2382809DB2800C0B265
:1042D0003B2805DA0020DFF89C1BC4E90A010FE047
:1042E0002800C0B2FEF7A6FA002805D00020DFF8AB
:1042F000841BC4E90A0103E000200021C4E90A018B
:1043000031BD00000136000800000000140000204C
:10431000ED35000880EE360010B50400608C4FF6D5
:10432000FF71884201D101204BE0208C4FF6FF71D4
:10433000884204D1608C002801D1012041E0A07B9B
:1043400038281DDBA07B3B281ADA208C002808D1F6
:10435000D4E90A230020002102F0D2FB01D1002081
:104360002FE0D4E90A010022002302F0C9FB05D2A4
:10437000D4E90A0191F00041C4E90A01012020E0DA
:10438000A07BFEF757FA00281AD0208C002808D10D
:10439000D4E90A230020002102F0B2FB01D1002061
:1043A0000FE0D4E90A010022002302F0A9FB05D2A4
:1043B000D4E90A0191F00041C4E90A01012000E0BA
:1043C000012010BD2DE9F84F90B00500686A15F185
:1043D0002401884201D06C6A00E00024002C54D0F3
:1043E0002600B0680079800746D52A7FB06801882A
:1043F0002800FFF7A3FD0190019800283CD1382741
:104400005FF000080DF1080942463900484601F006
:10441000B2FEB0680088ADF814000495B0688078EA
:104420008DF81600B068817802A8FFF748FF5FF0AA
:1044300008090DF1300A0DF1380B4A46514658462D
:1044400010F0EAFB02AA3100A868FFF7E8FE02A913
:104450002800FFF7C5FD8DF800009DF8000000283A
:1044600002D09DF8000011E002A92800FFF72AFE03
:10447000002801D1892009E0206815F12401884233
:1044800001D02468AAE70024A8E7002011B0BDE805
:10449000F08F2DE9F24FCAB004001500A068029019
:1044A000002700208DF80300002600208DF8020070
:1044B0005FF008085FF000090DF1100A4A46414616
:1044C000504601F058FE00208DF810004A984078C0
:1044D0008DF811004A988078002803D000208DF8CC
:1044E000120002E001208DF8120001208DF8130067
:1044F0004A988088ADF814004A9880798DF81600A3
:1045000007208DF81700052217A904A8FCF7F1FC75
:1045100006900698002806D580234A9A2900200094
:104520000DF034F91AE2288D864280F09A815FF00E
:1045300000095FF038085FF0000A0DF1200B5246C9
:104540004146584601F017FE288DF11C884206D2DC
:1045500080234A9A290020000DF018F9FEE1686ACC
:10456000805D8DF80100761C686A3044FDF7B9F86B
:10457000ADF82C00B61C9DF80100002840F03E81EB
:10458000288DB11C884206D280234A9A2900200037
:104590000DF0FCF8E2E1288D711C884279D3686A3D
:1045A000805D8DF82E00761C288DB11C884270D35A
:1045B000686A3044FDF795F8ADF84000B61C288DC8
:1045C000B11C884265D3686A3044FDF78AF8ADF8BB
:1045D0004200B61C288D711C88425AD39DF82E00CB
:1045E000382829DB9DF82E003B2825DA00232A8D68
:1045F000921B686A00EB06019DF82E00FEF769F831
:1046000003900398002803D585208DF800000FE162
:104610006A46686A00EB06019DF82E0001F071FA07
:104620008DED120B9DF80000002840F001810398E9
:104630008619012081462CE09DF82E00FEF7FAF83D
:10464000002826D000232A8D921B686A00EB060101
:104650009DF82E00FEF73DF803900398002803D53F
:1046600085208DF80000E3E06A46686A00EB0601E9
:104670009DF82E00FEF7F3F901F0B4FFCDE9120129
:104680009DF80000002840F0D3800398861901208F
:104690008146BDF82C102000FDF7F3F88246BAF1F0
:1046A000000F03D186208DF80000C1E0DAF8080081
:1046B0000079800703D48C208DF80000B8E0BDF8A5
:1046C00042004FF6FF71884201D1002081469DF8DB
:1046D0000120BDF82C102000FFF730FC8046BDF80B
:1046E00040004FF6FF7188421BD1BDF84200002800
:1046F00017D100208146B8F1000F0DD0B8F8240082
:10470000ADF84400B8F82600ADF84600002208A92C
:104710000298FFF79FFD04E008AA51460298FFF7B0
:104720007EFD9DF82E00DAF808108978884203D0C3
:104730008D208DF800007BE0B8F1000F21D0BDF88E
:104740004000A8F82000BDF84200A8F82200484622
:10475000C0B200280CD008A8FFF7DEFD002803D166
:1047600085208DF8000063E09DED120B88ED0A0BAB
:1047700002980CF01FFFC8F8100001208DF802000D
:10478000D1E6BDF842004FF6FF7188423FF4CBAE50
:104790000A944846C0B2002808D008A8FFF7BCFD1C
:1047A000002808D185208DF8000041E09DF82E10EA
:1047B00008A8FFF784FD0820169012A807900DF1B5
:1047C000500B169A0799584610F026FA08A92000AF
:1047D000FFF706FC8DF800009DF80000002827D1A7
:1047E00008A92000FFF76EFC002803D189218DF86D
:1047F00000101DE001218DF8021094E69DF80100E3
:1048000001280ED1288DB11C884206D280234A9AF5
:10481000290020000CF0BAFFA0E08C208DF80000E9
:1048200006E080234A9A290020000CF0AFFF95E0B3
:104830009DF800008DF80300381D372811D29DF82F
:1048400000003CA9C8557F1C9DF801003CA9C85533
:104850007F1CBDF82C103CA83844FCF78EFFBF1C11
:1048600061E69DF80300002805D1002000213CAA44
:104870001154401C07009DF80300002827D15FF069
:1048800020095FF000080DF1780A4246494650467B
:1048900001F071FC02980CF0AFF9CDE91E016888B7
:1048A0008DF88000A089ADF8820003208DF8880083
:1048B000688AADF88A00E88AADF88E00D5E906016D
:1048C000CDE9240132AA1EA902980CF0C6FB0022F1
:1048D00026A92000FBF7B0FD26A815F11001102233
:1048E00010F09AF995F82A00FBF741FDADF8BC00ED
:1048F000BDF8BC0050F48070ADF8BC0001208DF80C
:10490000BE0000208DF8BF0017A8199006981A90D5
:104910003CA81B901C9719A82C900220ADF8B4005D
:104920000023002226A902980CF06AFA9DF80200E2
:10493000002813D0012301AA40F20C4102980CF088
:104940000FFE002802D000208DF804009DF804001E
:10495000002803D1C8212000FEF79CFF4BB0BDE822
:10496000F08F2DE9F24F9AB0804691465FF0000A31
:1049700000238DA2B8F81A10D8F808000DF036F808
:104980000700002F06D189231A9A494640460CF0A9
:10499000FDFE05E10824002501AE2A0021003000BB
:1049A00001F0E9FB00208DF804001A9840788DF89A
:1049B00005001A988078002803D101208DF80600A0
:1049C00002E000208DF8060001208DF807001A98FB
:1049D0008088ADF808001A9880798DF80A000920BF
:1049E0008DF80B000522390001A8FCF782FA0400BB
:1049F000002C06D580231A9A494640460CF0C6FE84
:104A0000CEE0B9F82800824580F0A180B9F82800EE
:104A10001AF10301884206D280231A9A4946404679
:104A20000CF0B4FEBCE0504610F1010AD9F8241095
:104A3000085C002803D001208DF8000002E000206F
:104A40008DF80000D9F824005044FCF74AFEADF878
:104A500002001AF1020ABDF802104046FCF711FFED
:104A60000600002E02D15FF0860B5CE0B068007992
:104A7000800702D45FF08C0B55E09DF80020BDF854
:104A800002104046FFF75AFA0500002D02D15FF0F0
:104A90008B0B48E0688C4FF6FF71884202D15FF0C3
:104AA0008B0B40E020200590002004900DF1180BA6
:104AB000049A0599584601F05EFB9DF80000002815
:104AC00003D001208DF8180002E000208DF81800B6
:104AD000A889ADF81A00A87B8DF81C00288CADF8C9
:104AE0001E00688CADF8200095ED0A0B8DED0A0BC9
:104AF0000020ADF8300000203855641CB8F81A20AA
:104B0000200080B2121A07EB040106A800F096F804
:104B100003900398002803D5641E5FF0010B02E0A8
:104B2000039804196DE7B8F81A00E11C88420ED307
:104B300007F804B0641C9DF800003855641CBDF8EB
:104B4000021007EB0400FCF718FEA41C59E74A46C4
:104B50000EA94046FBF770FC0EA819F110011022B7
:104B600010F05AF899F82A00FBF701FCADF85C0048
:104B700001208DF85E0000208DF85F001497200062
:104B8000ADF85400002300220EA9D8F808000CF05C
:104B900037F9002304A23900D8F808000CF035FFDB
:104BA0001BB0BDE8F08F0000000000002DE9FC47BD
:104BB00004000D0016005FF0000AE06D00283BD0F5
:104BC000308D514689B2C91C884235D3706A51462E
:104BD00089B20844FCF785FD0700706A514689B226
:104BE0000844807880461AF1030A0023328D50462B
:104BF00080B2121A706A514689B201444046C0B26E
:104C0000FDF767FD8146B9F1000F15D4308DB0EB8B
:104C10000A0080B20190706A514689B2084400903F
:104C20004346DBB23A0092B231002000D4F85CC0B7
:104C3000E04719EB0A0AC3E7BDE8F3872DE9F8431B
:104C400005000E00904600272878002803D0012890
:104C500000F0F48008E1287901F080FA002802D001
:104C60000120814609E02879FDF7E4FD002802D003
:104C70000120814601E000208146B8F1080F02D2F0
:104C80005FF0FF30F3E02878F0557F1C698806EB71
:104C90000700FCF772FDBF1C2879F0557F1CE988DE
:104CA00006EB0700FCF769FDBF1C298906EB07002E
:104CB000FCF763FDBF1C4846C0B2002800F0BD8071
:104CC0002879FDF77BFC0400002C01D10120CEE007
:104CD000012C0ED0C0F0AF80032C2FD019D3052C9F
:104CE00054D03FD3072C7CD065D3082C00F08E80A5
:104CF000A1E0D5E9040101225F4B01F0F9FE01D8E2
:104D00000120B4E0D5E9040101F034FFF0557F1C27
:104D100093E0D5E904010122584B01F0E9FE01D8E6
:104D20000120A4E0D5E9040101F024FF010089B2CB
:104D300006EB0700FCF721FDBF1C7EE0D5E904016E
:104D40004F4A504B01F0D4FE01D801208FE0D5E945
:104D5000040101F037FF010006EB0700FCF713FD2B
:104D6000FF1C6AE0D5E90401474A484B01F0C0FE48
:104D700001D801207BE0D5E9040101F023FF010007
:104D800006EB0700FCF70BFD3F1D56E0D5E90401DB
:104D90003F4A404B01F0ACFE01D8012067E0D5E965
:104DA000040101F0AFFF02000B0006EB0700FCF767
:104DB00001FD7F1D41E0D5E904017FF01E02364B65
:104DC00001F096FE01D8012051E0D5E9040101F07F
:104DD00099FF02000B0006EB0700FCF7F5FCBF1D76
:104DE0002BE0D5E9040101222C4B01F081FE01D812
:104DF00001203CE0D5E9040101F084FF02000B0032
:104E000006EB0700FCF7EFFCFF1D16E0D5E90401F7
:104E10000122234B01F06CFE01D8012027E0D5E9E7
:104E2000040101F06FFF02000B0006EB0700FCF726
:104E3000E9FC083701E0012019E017E0B8F1080F9C
:104E400002D25FF0FF3012E02878F0557F1C6988AD
:104E500006EB0700FCF791FCBF1C298B06EB070053
:104E6000FCF78BFCBF1C01E0012000E03800BDE82E
:104E7000F28300000000F03F00E06F40E0FFEF40F1
:104E8000010000E0FFFF6F410100E0FFFFFFEF4185
:104E900001E0FFFFFFFF6F42FFFFEF4200007043A2
:104EA0000000F0432DE9F64F9BB004000D001E00FA
:104EB0000027287C002802D0287C072801D3012065
:104EC00059E05FF00008287C804515D25FEA481061
:104ED000284410F11809D7F139020CA800EB07019A
:104EE0004846FFF7ABFE0100012901DA012042E04C
:104EF000CF1918F10108E6E75FF030095FF0000A0A
:104F0000EB4652464946584601F035F900208DF8E7
:104F10001A00208A002801D0012000E000208DF82E
:104F20001B00208AADF81E0006208DF821000CF031
:104F3000B8FB8DF820006846290010220FF06CFEA7
:104F4000A08AADF81000A089ADF81200A07BADF8E2
:104F50001400E08AADF81600207E8DF81800607EFF
:104F60008DF819000CA809900A9733001C9A69461D
:104F7000A0680CF0BEFB1DB0BDE8F08F2DE9F64F28
:104F80009BB005000E001F000024307C002802D0DA
:104F9000307C072801D3012050E05FF00008307C0E
:104FA000804517D2E01C3A2801D3012046E05FEA91
:104FB00048103044007E0CA90855641C5FEA481074
:104FC0003044418B0CA82044FCF7D7FBA41C18F1FB
:104FD0000108E4E75FF030095FF0000AEB46524653
:104FE0004946584601F0C7F800208DF81A000820FD
:104FF0008DF821000CF055FB8DF82000684631003B
:1050000010220FF009FEA88AADF81000A889ADF8AB
:105010001200A87BADF81400E88AADF81600287ECF
:105020008DF81800687E8DF819000CA809900A9474
:105030003B001C9A6946A8680CF05BFB1DB0BDE8FC
:10504000F08F2DE9FC470700884691469A460A9C56
:10505000414689B23800FCF714FC0500002D01D14F
:1050600086202BE0A8680079800701D48C2025E0F9
:105070000022414689B23800FEF760FF0600002E8C
:1050800001D18B201AE0ADF80290ADF800A069467E
:105090000DF10200FFF7ACF8BDF80200B084BDF8D6
:1050A0000000F084002C03D094ED000B86ED0C0B77
:1050B00001223100B868FFF7CDF80020BDE8F6877F
:1050C000C16570470300FF2070472DE9FC470600CB
:1050D0000F00904699460A9D6C2F01D2002066E091
:1050E000002376A2390030000CF080FC0400002C74
:1050F00001D100205BE05FF0000A52463900200039
:1051000001F039F824606460A660A4F80C8084F88B
:105110000E90002020824FF48270A0820F20E08247
:10512000012020760020607639206083257714F1F5
:105130002400606214F12400A06214F130002063A6
:1051400014F1300060630094DFF88C3381224FF457
:10515000004130000BF0F6FFE0622200DFF87C1324
:1051600030000CF0A7F8A06322000FF215113000F8
:105170000CF0A0F82065AC212000FBF72AF80122F2
:10518000DFF85C132000FEF70FF9002807D000239A
:105190004AA2210030000CF038FC002007E0012278
:1051A00000234FF6FD712000FDF7EBFF2000BDE866
:1051B000F68710B50400A07BFF2804D1A089002841
:1051C00001D0A0890A28A07BFF280BD0237FA28AC8
:1051D000A17B20000CF076FB0100C9B2002901D0B0
:1051E000C0B205E0A06D002801D1BE48A065002036
:1051F00010BD10B50400A06800280BD020000CF0F2
:10520000A1FB20000CF0C8FBA07BFF2802D02000EF
:105210000CF025FB10BD38B50500AC68002C2DD076
:10522000286D002804D0286D0CF094F80020286523
:10523000A86B002804D0A86B0CF08CF80020A863A1
:10524000E86A002805D0E96A20000BF0DDFF0020A5
:10525000E8622800FEF760FE2800FFF7CAFF28007A
:10526000FEF7B0F9A86E002802D02800A96E884782
:10527000002312A2290020000CF0C7FB31BD000062
:10528000FEB505000E00370002A9380000F018F83E
:105290000400002C10D0BDF8080001900094BB7BE6
:1052A0009BB23A7FB989B86800F01EF9002303A2C7
:1052B0002100B8680CF0A9FBF7BD00000000000059
:1052C0002DE9F24F8CB006005FF000095FF0000896
:1052D000706A16F12401884201D0746A00E000244B
:1052E000002C1AD02700B868007940070CD538691F
:1052F000002803D03869B0F5803F00D304E018F1EE
:105300000408386910EB0808206816F12401884267
:1053100001D02468E4E70024E2E7404680B2002898
:1053200001D10020D2E000236AA2414689B2B068D0
:105330000CF05CFB0500002D01D10020C6E0706A76
:1053400016F12401884201D0746A00E00024002C88
:1053500000F0B8802700B8680079400740F1A980C4
:10536000B8680079C00664D5484680B22844001D5C
:105370000190414689B2484680B2091A081FADF82B
:10538000000020200390002002900DF1100A029AE4
:105390000399504600F0EFFEB868049000208DF8A5
:1053A000140001980690BDF800000790706D0B90F6
:1053B00004AA39003000FEF7D1F882465046C0B248
:1053C000002876D10023BDF800200199B8688078C4
:1053D000FDF77FF98346BBF1010F02DBBBF5803F90
:1053E00000DB66E0404680B2494689B211FA8BF193
:1053F000091D884207D2002336A22900B0680CF0AC
:1054000004FB002062E0B8680188484680B2284466
:10541000FCF7B3F919F102095846010089B2484670
:1054200080B22844FCF7A9F919F102091BEB09091C
:105430003FE000233A69F968B8688078FDF749F9D8
:105440008346BBF1010F02DBBBF5803F00DB30E0A0
:10545000404680B2494689B211FA8BF1091D884253
:1054600007D200231BA22900B0680CF0CEFA00205E
:105470002CE0B8680188484680B22844FCF77DF9E2
:1054800019F102095846010089B2484680B2284401
:10549000FCF773F919F10209F8680090484680B2E8
:1054A00005EB000A5A46009950460FF0B5FB1BEB7E
:1054B0000909206816F12401884201D0246846E7D2
:1054C000002444E70C98A0F8009028000DB0BDE837
:1054D000F08F0000000000008D3F0008013A000836
:1054E00098790108C55000082DE9F74F98B00500DC
:1054F0001E00DDF890A0259C5FF00008300080B20F
:10550000FF2801D18520A3E0200080B24FF6FB7177
:10551000884201D389209BE05FF008095FF0000B0F
:105520006F465A464946380000F025FE01208DF8A6
:10553000000001208DF8010000208DF802000120FC
:105540008DF803004FF6FE70ADF804000CF0A9F8DA
:105550008DF8060000208DF80700052204A9684692
:10556000FBF7C7FC0700002F01D5852070E004A8D9
:1055700012A941F8380012A800EBC800476018F1E2
:105580000108BDF8641002A8FCF7F7F89DF8680060
:105590008DF80A0002A812A941F83800032012A9C8
:1055A00001EBC801486018F1010812A840F838A0C2
:1055B000200080B212A901EBC801486018F101086F
:1055C000CDF80C805FF030085FF000090DF1180B8A
:1055D0004A464146584600F0CEFD03208DF818009B
:1055E00028000BF009FBCDE90801FF20ADF81A00F7
:1055F0004FF6FF70ADF828004FF6FE70ADF82A00A8
:10560000ADF82C6012A80C900398ADF8340000207F
:105610008DF83E0000208DF83F004FF48070ADF80B
:105620003C00BDF83C0050F00800ADF83C00BDF86F
:105630003C0050F00400ADF83C000023002206A915
:1056400028000BF0DDFB002801D0012000E0002045
:105650001BB0BDE8F08F2DE9F843A2B004000D00A7
:105660001600206E002806D184232A003100200075
:105670000CF08CF86BE008275FF00008E946424622
:105680003900484600F077FD00208DF80000012029
:105690008DF80100A878002803D101208DF80200C0
:1056A00002E000208DF8020001208DF803004FF683
:1056B000FE70ADF80400A8798DF80600F0208DF892
:1056C0000700628B0EA96846FBF713FC0700002F4A
:1056D00006D580232A00310020000CF057F836E070
:1056E000B946D9F14D02D2B20EA800EB0901200053
:1056F000236E984780464046C0B2002806D18423D6
:105700002A00310020000CF041F820E059FA88F915
:10571000320002A92000FAF78FFE02A816F110014C
:1057200010220FF079FA0020ADF82C0000208DF83F
:105730002E0000208DF82F000EA808904846ADF8E6
:1057400024000023002202A9A0680BF059FB23B01B
:10575000BDE8F0832DE9F84FA4B005000E00170056
:10576000686E002806D184233200390028000CF02E
:105770000DF883E0388D052806DA802332003900E1
:1057800028000CF003F879E0786AFBF7BBFF80464D
:10579000786A00798DF800009DF80000401D398D71
:1057A000884206D280233200390028000BF0EEFF39
:1057B00064E043469BB29DF80020786A411D2800B2
:1057C0006C6EA047814608245FF0000A0DF1040BBF
:1057D00052462100584600F0CEFC00208DF804000F
:1057E00001208DF80500B078002803D101208DF844
:1057F000060002E000208DF8060001208DF8070069
:105800004FF6FE70ADF80800B0798DF80A00F1206F
:105810008DF80B006A8B10A901A8FBF76AFB040046
:10582000002C06D580233200390028000BF0AEFF93
:1058300024E0A24610A800F80A901AF1010A3A00E2
:1058400004A92800FAF7F8FD04A817F110011022A6
:105850000FF0E2F90020ADF8340000208DF836009A
:1058600000208DF8370010A80A905046ADF82C00A3
:105870000023002204A9A8680BF0C2FA25B0BDE8F5
:10588000F08F00002DE9F54F81B02DED048B84B031
:10589000B0EE408AF0EE608A0E009DF824003828B1
:1058A00049D1002410257FF00E070A98022802D261
:1058B0005FF0FF3020E13A0029006846B0EE480A68
:1058C000F0EE680A00F00EFBB0EE409AF0EE609A3F
:1058D000DDF80080B8EB07085FEA882818F4F8487C
:1058E00051EC190B0022002301F00AF910D251ECFF
:1058F000190B91F0004101F03DF94FF4806110FB6C
:1059000001F18905890D58EA010151F400410BE0CC
:1059100051EC190B01F02EF94FF4806110FB01F1ED
:105920008905890D58EA01013170080080B2000A2A
:1059300070700220E0E09DF8240039284ED1002448
:1059400080257FF07E070A98042802D25FF0FF309E
:10595000D2E03A0029006846B0EE480AF0EE680A44
:1059600000F0C0FAB0EE409AF0EE609ADDF80080E8
:10597000B8EB07085FEAC85818F0FF4851EC190B5C
:105980000022002301F0BCF810D251EC190B91F069
:10599000004101F017F901005FF4000041434902A2
:1059A000490A58EA010151F000410BE051EC190B92
:1059B00001F008F901005FF4000041434902490A7F
:1059C00058EA010131700800000A70700800000CEC
:1059D000B0700800000EF07004208DE09DF82400E7
:1059E0003A2840F08780002400254FF48067DFF8D4
:1059F00054870A98082802D25FF0FF307CE04246C4
:105A000039006846B0EE480AF0EE680A00F06AFA1B
:105A1000B0EE409AF0EE609A0098C1175FEAE8791C
:105A2000B0EB080071EB0901010500200022DFF84E
:105A3000183710401940CDE9020151EC190B002232
:105A4000002301F05DF81FD251EC190B91F00041D9
:105A500001F058F900225FF48013A2FB00AB02FBB7
:105A600001BB03FB00BB5FF0FF30DFF8E0161AEA72
:105A700000001BEA0101DDE902231043194350F045
:105A8000000251F0004318E051EC190B01F03AF913
:105A900000225FF48013A2FB00AB02FB01BB03FBFF
:105AA00000BB5FF0FF30DFF8A4161AEA00001BEA23
:105AB0000101DDE9022302430B433270100080B282
:105AC000000A70701000000CB0701000000EF07032
:105AD000337110001900080A0021707110001900BC
